{
  "_format": "hh-sol-artifact-1",
  "contractName": "PatientNFT",
  "sourceName": "contracts/PatientNFT.sol",
  "abi": [
    {
      "inputs": [
        {
          "internalType": "address",
          "name": "initialOwner",
          "type": "address"
        }
      ],
      "stateMutability": "nonpayable",
      "type": "constructor"
    },
    {
      "inputs": [
        {
          "internalType": "address",
          "name": "sender",
          "type": "address"
        },
        {
          "internalType": "uint256",
          "name": "tokenId",
          "type": "uint256"
        },
        {
          "internalType": "address",
          "name": "owner",
          "type": "address"
        }
      ],
      "name": "ERC721IncorrectOwner",
      "type": "error"
    },
    {
      "inputs": [
        {
          "internalType": "address",
          "name": "operator",
          "type": "address"
        },
        {
          "internalType": "uint256",
          "name": "tokenId",
          "type": "uint256"
        }
      ],
      "name": "ERC721InsufficientApproval",
      "type": "error"
    },
    {
      "inputs": [
        {
          "internalType": "address",
          "name": "approver",
          "type": "address"
        }
      ],
      "name": "ERC721InvalidApprover",
      "type": "error"
    },
    {
      "inputs": [
        {
          "internalType": "address",
          "name": "operator",
          "type": "address"
        }
      ],
      "name": "ERC721InvalidOperator",
      "type": "error"
    },
    {
      "inputs": [
        {
          "internalType": "address",
          "name": "owner",
          "type": "address"
        }
      ],
      "name": "ERC721InvalidOwner",
      "type": "error"
    },
    {
      "inputs": [
        {
          "internalType": "address",
          "name": "receiver",
          "type": "address"
        }
      ],
      "name": "ERC721InvalidReceiver",
      "type": "error"
    },
    {
      "inputs": [
        {
          "internalType": "address",
          "name": "sender",
          "type": "address"
        }
      ],
      "name": "ERC721InvalidSender",
      "type": "error"
    },
    {
      "inputs": [
        {
          "internalType": "uint256",
          "name": "tokenId",
          "type": "uint256"
        }
      ],
      "name": "ERC721NonexistentToken",
      "type": "error"
    },
    {
      "inputs": [
        {
          "internalType": "address",
          "name": "owner",
          "type": "address"
        }
      ],
      "name": "OwnableInvalidOwner",
      "type": "error"
    },
    {
      "inputs": [
        {
          "internalType": "address",
          "name": "account",
          "type": "address"
        }
      ],
      "name": "OwnableUnauthorizedAccount",
      "type": "error"
    },
    {
      "anonymous": false,
      "inputs": [
        {
          "indexed": true,
          "internalType": "address",
          "name": "owner",
          "type": "address"
        },
        {
          "indexed": true,
          "internalType": "address",
          "name": "approved",
          "type": "address"
        },
        {
          "indexed": true,
          "internalType": "uint256",
          "name": "tokenId",
          "type": "uint256"
        }
      ],
      "name": "Approval",
      "type": "event"
    },
    {
      "anonymous": false,
      "inputs": [
        {
          "indexed": true,
          "internalType": "address",
          "name": "owner",
          "type": "address"
        },
        {
          "indexed": true,
          "internalType": "address",
          "name": "operator",
          "type": "address"
        },
        {
          "indexed": false,
          "internalType": "bool",
          "name": "approved",
          "type": "bool"
        }
      ],
      "name": "ApprovalForAll",
      "type": "event"
    },
    {
      "anonymous": false,
      "inputs": [
        {
          "indexed": false,
          "internalType": "uint256",
          "name": "_fromTokenId",
          "type": "uint256"
        },
        {
          "indexed": false,
          "internalType": "uint256",
          "name": "_toTokenId",
          "type": "uint256"
        }
      ],
      "name": "BatchMetadataUpdate",
      "type": "event"
    },
    {
      "anonymous": false,
      "inputs": [
        {
          "indexed": true,
          "internalType": "uint256",
          "name": "tokenId",
          "type": "uint256"
        },
        {
          "indexed": true,
          "internalType": "address",
          "name": "owner",
          "type": "address"
        },
        {
          "indexed": false,
          "internalType": "bool",
          "name": "allowed",
          "type": "bool"
        }
      ],
      "name": "ConsentChanged",
      "type": "event"
    },
    {
      "anonymous": false,
      "inputs": [
        {
          "indexed": false,
          "internalType": "uint256",
          "name": "_tokenId",
          "type": "uint256"
        }
      ],
      "name": "MetadataUpdate",
      "type": "event"
    },
    {
      "anonymous": false,
      "inputs": [
        {
          "indexed": true,
          "internalType": "address",
          "name": "previousOwner",
          "type": "address"
        },
        {
          "indexed": true,
          "internalType": "address",
          "name": "newOwner",
          "type": "address"
        }
      ],
      "name": "OwnershipTransferred",
      "type": "event"
    },
    {
      "anonymous": false,
      "inputs": [
        {
          "indexed": true,
          "internalType": "uint256",
          "name": "tokenId",
          "type": "uint256"
        },
        {
          "indexed": true,
          "internalType": "address",
          "name": "owner",
          "type": "address"
        },
        {
          "indexed": false,
          "internalType": "string",
          "name": "tokenURI",
          "type": "string"
        }
      ],
      "name": "PatientMinted",
      "type": "event"
    },
    {
      "anonymous": false,
      "inputs": [
        {
          "indexed": true,
          "internalType": "address",
          "name": "from",
          "type": "address"
        },
        {
          "indexed": true,
          "internalType": "address",
          "name": "to",
          "type": "address"
        },
        {
          "indexed": true,
          "internalType": "uint256",
          "name": "tokenId",
          "type": "uint256"
        }
      ],
      "name": "Transfer",
      "type": "event"
    },
    {
      "inputs": [
        {
          "internalType": "address",
          "name": "to",
          "type": "address"
        },
        {
          "internalType": "uint256",
          "name": "tokenId",
          "type": "uint256"
        }
      ],
      "name": "approve",
      "outputs": [],
      "stateMutability": "nonpayable",
      "type": "function"
    },
    {
      "inputs": [
        {
          "internalType": "address",
          "name": "owner",
          "type": "address"
        }
      ],
      "name": "balanceOf",
      "outputs": [
        {
          "internalType": "uint256",
          "name": "",
          "type": "uint256"
        }
      ],
      "stateMutability": "view",
      "type": "function"
    },
    {
      "inputs": [
        {
          "internalType": "uint256",
          "name": "tokenId",
          "type": "uint256"
        }
      ],
      "name": "getApproved",
      "outputs": [
        {
          "internalType": "address",
          "name": "",
          "type": "address"
        }
      ],
      "stateMutability": "view",
      "type": "function"
    },
    {
      "inputs": [
        {
          "internalType": "uint256",
          "name": "tokenId",
          "type": "uint256"
        }
      ],
      "name": "isAllowed",
      "outputs": [
        {
          "internalType": "bool",
          "name": "",
          "type": "bool"
        }
      ],
      "stateMutability": "view",
      "type": "function"
    },
    {
      "inputs": [
        {
          "internalType": "address",
          "name": "owner",
          "type": "address"
        },
        {
          "internalType": "address",
          "name": "operator",
          "type": "address"
        }
      ],
      "name": "isApprovedForAll",
      "outputs": [
        {
          "internalType": "bool",
          "name": "",
          "type": "bool"
        }
      ],
      "stateMutability": "view",
      "type": "function"
    },
    {
      "inputs": [
        {
          "internalType": "string",
          "name": "tokenURI",
          "type": "string"
        }
      ],
      "name": "mintPatient",
      "outputs": [
        {
          "internalType": "uint256",
          "name": "",
          "type": "uint256"
        }
      ],
      "stateMutability": "nonpayable",
      "type": "function"
    },
    {
      "inputs": [],
      "name": "name",
      "outputs": [
        {
          "internalType": "string",
          "name": "",
          "type": "string"
        }
      ],
      "stateMutability": "view",
      "type": "function"
    },
    {
      "inputs": [],
      "name": "nextTokenId",
      "outputs": [
        {
          "internalType": "uint256",
          "name": "",
          "type": "uint256"
        }
      ],
      "stateMutability": "view",
      "type": "function"
    },
    {
      "inputs": [],
      "name": "owner",
      "outputs": [
        {
          "internalType": "address",
          "name": "",
          "type": "address"
        }
      ],
      "stateMutability": "view",
      "type": "function"
    },
    {
      "inputs": [
        {
          "internalType": "uint256",
          "name": "tokenId",
          "type": "uint256"
        }
      ],
      "name": "ownerOf",
      "outputs": [
        {
          "internalType": "address",
          "name": "",
          "type": "address"
        }
      ],
      "stateMutability": "view",
      "type": "function"
    },
    {
      "inputs": [],
      "name": "renounceOwnership",
      "outputs": [],
      "stateMutability": "nonpayable",
      "type": "function"
    },
    {
      "inputs": [
        {
          "internalType": "address",
          "name": "from",
          "type": "address"
        },
        {
          "internalType": "address",
          "name": "to",
          "type": "address"
        },
        {
          "internalType": "uint256",
          "name": "tokenId",
          "type": "uint256"
        }
      ],
      "name": "safeTransferFrom",
      "outputs": [],
      "stateMutability": "nonpayable",
      "type": "function"
    },
    {
      "inputs": [
        {
          "internalType": "address",
          "name": "from",
          "type": "address"
        },
        {
          "internalType": "address",
          "name": "to",
          "type": "address"
        },
        {
          "internalType": "uint256",
          "name": "tokenId",
          "type": "uint256"
        },
        {
          "internalType": "bytes",
          "name": "data",
          "type": "bytes"
        }
      ],
      "name": "safeTransferFrom",
      "outputs": [],
      "stateMutability": "nonpayable",
      "type": "function"
    },
    {
      "inputs": [
        {
          "internalType": "uint256",
          "name": "tokenId",
          "type": "uint256"
        },
        {
          "internalType": "bool",
          "name": "allowed",
          "type": "bool"
        }
      ],
      "name": "setAllowTraining",
      "outputs": [],
      "stateMutability": "nonpayable",
      "type": "function"
    },
    {
      "inputs": [
        {
          "internalType": "address",
          "name": "operator",
          "type": "address"
        },
        {
          "internalType": "bool",
          "name": "approved",
          "type": "bool"
        }
      ],
      "name": "setApprovalForAll",
      "outputs": [],
      "stateMutability": "nonpayable",
      "type": "function"
    },
    {
      "inputs": [
        {
          "internalType": "bytes4",
          "name": "interfaceId",
          "type": "bytes4"
        }
      ],
      "name": "supportsInterface",
      "outputs": [
        {
          "internalType": "bool",
          "name": "",
          "type": "bool"
        }
      ],
      "stateMutability": "view",
      "type": "function"
    },
    {
      "inputs": [],
      "name": "symbol",
      "outputs": [
        {
          "internalType": "string",
          "name": "",
          "type": "string"
        }
      ],
      "stateMutability": "view",
      "type": "function"
    },
    {
      "inputs": [
        {
          "internalType": "uint256",
          "name": "tokenId",
          "type": "uint256"
        }
      ],
      "name": "tokenURI",
      "outputs": [
        {
          "internalType": "string",
          "name": "",
          "type": "string"
        }
      ],
      "stateMutability": "view",
      "type": "function"
    },
    {
      "inputs": [
        {
          "internalType": "address",
          "name": "from",
          "type": "address"
        },
        {
          "internalType": "address",
          "name": "to",
          "type": "address"
        },
        {
          "internalType": "uint256",
          "name": "tokenId",
          "type": "uint256"
        }
      ],
      "name": "transferFrom",
      "outputs": [],
      "stateMutability": "nonpayable",
      "type": "function"
    },
    {
      "inputs": [
        {
          "internalType": "address",
          "name": "newOwner",
          "type": "address"
        }
      ],
      "name": "transferOwnership",
      "outputs": [],
      "stateMutability": "nonpayable",
      "type": "function"
    }
  ],
  "bytecode": "0x608060405260016008553480156200001657600080fd5b5060405162002f2c38038062002f2c83398181016040528101906200003c91906200028d565b806040518060400160405280600a81526020017f50617469656e744e4654000000000000000000000000000000000000000000008152506040518060400160405280600481526020017f50544e54000000000000000000000000000000000000000000000000000000008152508160009081620000ba919062000539565b508060019081620000cc919062000539565b505050600073ffffffffffffffffffffffffffffffffffffffff168173ffffffffffffffffffffffffffffffffffffffff1603620001445760006040517f1e4fbdf70000000000000000000000000000000000000000000000000000000081526004016200013b919062000631565b60405180910390fd5b62000155816200015d60201b60201c565b50506200064e565b6000600760009054906101000a900473ffffffffffffffffffffffffffffffffffffffff16905081600760006101000a81548173ffffffffffffffffffffffffffffffffffffffff021916908373ffffffffffffffffffffffffffffffffffffffff1602179055508173ffffffffffffffffffffffffffffffffffffffff168173ffffffffffffffffffffffffffffffffffffffff167f8be0079c531659141344cd1fd0a4f28419497f9722a3daafe3b4186f6b6457e060405160405180910390a35050565b600080fd5b600073ffffffffffffffffffffffffffffffffffffffff82169050919050565b6000620002558262000228565b9050919050565b620002678162000248565b81146200027357600080fd5b50565b60008151905062000287816200025c565b92915050565b600060208284031215620002a657620002a562000223565b5b6000620002b68482850162000276565b91505092915050565b600081519050919050565b7f4e487b7100000000000000000000000000000000000000000000000000000000600052604160045260246000fd5b7f4e487b7100000000000000000000000000000000000000000000000000000000600052602260045260246000fd5b600060028204905060018216806200034157607f821691505b602082108103620003575762000356620002f9565b5b50919050565b60008190508160005260206000209050919050565b60006020601f8301049050919050565b600082821b905092915050565b600060088302620003c17fffffffffffffffffffffffffffffffffffffffffffffffffffffffffffffffff8262000382565b620003cd868362000382565b95508019841693508086168417925050509392505050565b6000819050919050565b6000819050919050565b60006200041a620004146200040e84620003e5565b620003ef565b620003e5565b9050919050565b6000819050919050565b6200043683620003f9565b6200044e620004458262000421565b8484546200038f565b825550505050565b600090565b6200046562000456565b620004728184846200042b565b505050565b5b818110156200049a576200048e6000826200045b565b60018101905062000478565b5050565b601f821115620004e957620004b3816200035d565b620004be8462000372565b81016020851015620004ce578190505b620004e6620004dd8562000372565b83018262000477565b50505b505050565b600082821c905092915050565b60006200050e60001984600802620004ee565b1980831691505092915050565b6000620005298383620004fb565b9150826002028217905092915050565b6200054482620002bf565b67ffffffffffffffff81111562000560576200055f620002ca565b5b6200056c825462000328565b620005798282856200049e565b600060209050601f831160018114620005b157600084156200059c578287015190505b620005a885826200051b565b86555062000618565b601f198416620005c1866200035d565b60005b82811015620005eb57848901518255600182019150602085019450602081019050620005c4565b868310156200060b578489015162000607601f891682620004fb565b8355505b6001600288020188555050505b505050505050565b6200062b8162000248565b82525050565b600060208201905062000648600083018462000620565b92915050565b6128ce806200065e6000396000f3fe608060405234801561001057600080fd5b506004361061012c5760003560e01c806370a08231116100ad578063a22cb46511610071578063a22cb46514610343578063b88d4fde1461035f578063c87b56dd1461037b578063e985e9c5146103ab578063f2fde38b146103db5761012c565b806370a08231146102af578063715018a6146102df57806375794a3c146102e95780638da5cb5b1461030757806395d89b41146103255761012c565b806323b872dd116100f457806323b872dd146101fb57806342842e0e146102175780635c5f6ede146102335780636352211e146102635780636566947c146102935761012c565b806301ffc9a71461013157806306fdde0314610161578063081812fc1461017f578063095ea7b3146101af578063142faa1e146101cb575b600080fd5b61014b60048036038101906101469190611c8d565b6103f7565b6040516101589190611cd5565b60405180910390f35b610169610458565b6040516101769190611d80565b60405180910390f35b61019960048036038101906101949190611dd8565b6104ea565b6040516101a69190611e46565b60405180910390f35b6101c960048036038101906101c49190611e8d565b610506565b005b6101e560048036038101906101e09190612002565b61051c565b6040516101f2919061205a565b60405180910390f35b61021560048036038101906102109190612075565b6105a8565b005b610231600480360381019061022c9190612075565b6106aa565b005b61024d60048036038101906102489190611dd8565b6106ca565b60405161025a9190611cd5565b60405180910390f35b61027d60048036038101906102789190611dd8565b6106f4565b60405161028a9190611e46565b60405180910390f35b6102ad60048036038101906102a891906120f4565b610706565b005b6102c960048036038101906102c49190612134565b6107fa565b6040516102d6919061205a565b60405180910390f35b6102e76108b4565b005b6102f16108c8565b6040516102fe919061205a565b60405180910390f35b61030f6108ce565b60405161031c9190611e46565b60405180910390f35b61032d6108f8565b60405161033a9190611d80565b60405180910390f35b61035d60048036038101906103589190612161565b61098a565b005b61037960048036038101906103749190612242565b6109a0565b005b61039560048036038101906103909190611dd8565b6109c5565b6040516103a29190611d80565b60405180910390f35b6103c560048036038101906103c091906122c5565b610ad8565b6040516103d29190611cd5565b60405180910390f35b6103f560048036038101906103f09190612134565b610b6c565b005b6000634906490660e01b7bffffffffffffffffffffffffffffffffffffffffffffffffffffffff1916827bffffffffffffffffffffffffffffffffffffffffffffffffffffffff19161480610451575061045082610bf2565b5b9050919050565b60606000805461046790612334565b80601f016020809104026020016040519081016040528092919081815260200182805461049390612334565b80156104e05780601f106104b5576101008083540402835291602001916104e0565b820191906000526020600020905b8154815290600101906020018083116104c357829003601f168201915b5050505050905090565b60006104f582610cd4565b506104ff82610d5c565b9050919050565b6105188282610513610d99565b610da1565b5050565b60008060085490506008600081548092919061053790612394565b91905055506105463382610db3565b6105508184610eac565b3373ffffffffffffffffffffffffffffffffffffffff16817f0b181f7b8544966ccd78d0fb0714ddc44569aced835d6d89292300ee99cec360856040516105979190611d80565b60405180910390a380915050919050565b600073ffffffffffffffffffffffffffffffffffffffff168273ffffffffffffffffffffffffffffffffffffffff160361061a5760006040517f64a0ae920000000000000000000000000000000000000000000000000000000081526004016106119190611e46565b60405180910390fd5b600061062e8383610629610d99565b610f08565b90508373ffffffffffffffffffffffffffffffffffffffff168173ffffffffffffffffffffffffffffffffffffffff16146106a4578382826040517f64283d7b00000000000000000000000000000000000000000000000000000000815260040161069b939291906123dc565b60405180910390fd5b50505050565b6106c5838383604051806020016040528060008152506109a0565b505050565b60006009600083815260200190815260200160002060009054906101000a900460ff169050919050565b60006106ff82610cd4565b9050919050565b3373ffffffffffffffffffffffffffffffffffffffff16610726836106f4565b73ffffffffffffffffffffffffffffffffffffffff161461077c576040517f08c379a00000000000000000000000000000000000000000000000000000000081526004016107739061245f565b60405180910390fd5b806009600084815260200190815260200160002060006101000a81548160ff0219169083151502179055503373ffffffffffffffffffffffffffffffffffffffff16827f786f79077c37f80b69e10bd37058c3a54f70210b20414cc0432cd1d6087db381836040516107ee9190611cd5565b60405180910390a35050565b60008073ffffffffffffffffffffffffffffffffffffffff168273ffffffffffffffffffffffffffffffffffffffff160361086d5760006040517f89c62b640000000000000000000000000000000000000000000000000000000081526004016108649190611e46565b60405180910390fd5b600360008373ffffffffffffffffffffffffffffffffffffffff1673ffffffffffffffffffffffffffffffffffffffff168152602001908152602001600020549050919050565b6108bc611122565b6108c660006111a9565b565b60085481565b6000600760009054906101000a900473ffffffffffffffffffffffffffffffffffffffff16905090565b60606001805461090790612334565b80601f016020809104026020016040519081016040528092919081815260200182805461093390612334565b80156109805780601f1061095557610100808354040283529160200191610980565b820191906000526020600020905b81548152906001019060200180831161096357829003601f168201915b5050505050905090565b61099c610995610d99565b838361126f565b5050565b6109ab8484846105a8565b6109bf6109b6610d99565b858585856113de565b50505050565b60606109d082610cd4565b5060006006600084815260200190815260200160002080546109f190612334565b80601f0160208091040260200160405190810160405280929190818152602001828054610a1d90612334565b8015610a6a5780601f10610a3f57610100808354040283529160200191610a6a565b820191906000526020600020905b815481529060010190602001808311610a4d57829003601f168201915b505050505090506000610a7b61158f565b90506000815103610a90578192505050610ad3565b600082511115610ac5578082604051602001610aad9291906124bb565b60405160208183030381529060405292505050610ad3565b610ace846115a6565b925050505b919050565b6000600560008473ffffffffffffffffffffffffffffffffffffffff1673ffffffffffffffffffffffffffffffffffffffff16815260200190815260200160002060008373ffffffffffffffffffffffffffffffffffffffff1673ffffffffffffffffffffffffffffffffffffffff16815260200190815260200160002060009054906101000a900460ff16905092915050565b610b74611122565b600073ffffffffffffffffffffffffffffffffffffffff168173ffffffffffffffffffffffffffffffffffffffff1603610be65760006040517f1e4fbdf7000000000000000000000000000000000000000000000000000000008152600401610bdd9190611e46565b60405180910390fd5b610bef816111a9565b50565b60007f80ac58cd000000000000000000000000000000000000000000000000000000007bffffffffffffffffffffffffffffffffffffffffffffffffffffffff1916827bffffffffffffffffffffffffffffffffffffffffffffffffffffffff19161480610cbd57507f5b5e139f000000000000000000000000000000000000000000000000000000007bffffffffffffffffffffffffffffffffffffffffffffffffffffffff1916827bffffffffffffffffffffffffffffffffffffffffffffffffffffffff1916145b80610ccd5750610ccc8261160f565b5b9050919050565b600080610ce083611679565b9050600073ffffffffffffffffffffffffffffffffffffffff168173ffffffffffffffffffffffffffffffffffffffff1603610d5357826040517f7e273289000000000000000000000000000000000000000000000000000000008152600401610d4a919061205a565b60405180910390fd5b80915050919050565b60006004600083815260200190815260200160002060009054906101000a900473ffffffffffffffffffffffffffffffffffffffff169050919050565b600033905090565b610dae83838360016116b6565b505050565b600073ffffffffffffffffffffffffffffffffffffffff168273ffffffffffffffffffffffffffffffffffffffff1603610e255760006040517f64a0ae92000000000000000000000000000000000000000000000000000000008152600401610e1c9190611e46565b60405180910390fd5b6000610e3383836000610f08565b9050600073ffffffffffffffffffffffffffffffffffffffff168173ffffffffffffffffffffffffffffffffffffffff1614610ea75760006040517f73c6ac6e000000000000000000000000000000000000000000000000000000008152600401610e9e9190611e46565b60405180910390fd5b505050565b80600660008481526020019081526020016000209081610ecc919061268b565b507ff8e1a15aba9398e019f0b49df1a4fde98ee17ae345cb5f6b5e2c27f5033e8ce782604051610efc919061205a565b60405180910390a15050565b600080610f1484611679565b9050600073ffffffffffffffffffffffffffffffffffffffff168373ffffffffffffffffffffffffffffffffffffffff1614610f5657610f5581848661187b565b5b600073ffffffffffffffffffffffffffffffffffffffff168173ffffffffffffffffffffffffffffffffffffffff1614610fe757610f986000856000806116b6565b6001600360008373ffffffffffffffffffffffffffffffffffffffff1673ffffffffffffffffffffffffffffffffffffffff168152602001908152602001600020600082825403925050819055505b600073ffffffffffffffffffffffffffffffffffffffff168573ffffffffffffffffffffffffffffffffffffffff161461106a576001600360008773ffffffffffffffffffffffffffffffffffffffff1673ffffffffffffffffffffffffffffffffffffffff168152602001908152602001600020600082825401925050819055505b846002600086815260200190815260200160002060006101000a81548173ffffffffffffffffffffffffffffffffffffffff021916908373ffffffffffffffffffffffffffffffffffffffff160217905550838573ffffffffffffffffffffffffffffffffffffffff168273ffffffffffffffffffffffffffffffffffffffff167fddf252ad1be2c89b69c2b068fc378daa952ba7f163c4a11628f55a4df523b3ef60405160405180910390a4809150509392505050565b61112a610d99565b73ffffffffffffffffffffffffffffffffffffffff166111486108ce565b73ffffffffffffffffffffffffffffffffffffffff16146111a75761116b610d99565b6040517f118cdaa700000000000000000000000000000000000000000000000000000000815260040161119e9190611e46565b60405180910390fd5b565b6000600760009054906101000a900473ffffffffffffffffffffffffffffffffffffffff16905081600760006101000a81548173ffffffffffffffffffffffffffffffffffffffff021916908373ffffffffffffffffffffffffffffffffffffffff1602179055508173ffffffffffffffffffffffffffffffffffffffff168173ffffffffffffffffffffffffffffffffffffffff167f8be0079c531659141344cd1fd0a4f28419497f9722a3daafe3b4186f6b6457e060405160405180910390a35050565b600073ffffffffffffffffffffffffffffffffffffffff168273ffffffffffffffffffffffffffffffffffffffff16036112e057816040517f5b08ba180000000000000000000000000000000000000000000000000000000081526004016112d79190611e46565b60405180910390fd5b80600560008573ffffffffffffffffffffffffffffffffffffffff1673ffffffffffffffffffffffffffffffffffffffff16815260200190815260200160002060008473ffffffffffffffffffffffffffffffffffffffff1673ffffffffffffffffffffffffffffffffffffffff16815260200190815260200160002060006101000a81548160ff0219169083151502179055508173ffffffffffffffffffffffffffffffffffffffff168373ffffffffffffffffffffffffffffffffffffffff167f17307eab39ab6107e8899845ad3d59bd9653f200f220920489ca2b5937696c31836040516113d19190611cd5565b60405180910390a3505050565b60008373ffffffffffffffffffffffffffffffffffffffff163b1115611588578273ffffffffffffffffffffffffffffffffffffffff1663150b7a02868685856040518563ffffffff1660e01b815260040161143d94939291906127b2565b6020604051808303816000875af192505050801561147957506040513d601f19601f820116820180604052508101906114769190612813565b60015b6114fd573d80600081146114a9576040519150601f19603f3d011682016040523d82523d6000602084013e6114ae565b606091505b5060008151036114f557836040517f64a0ae920000000000000000000000000000000000000000000000000000000081526004016114ec9190611e46565b60405180910390fd5b805160208201fd5b63150b7a0260e01b7bffffffffffffffffffffffffffffffffffffffffffffffffffffffff1916817bffffffffffffffffffffffffffffffffffffffffffffffffffffffff19161461158657836040517f64a0ae9200000000000000000000000000000000000000000000000000000000815260040161157d9190611e46565b60405180910390fd5b505b5050505050565b606060405180602001604052806000815250905090565b60606115b182610cd4565b5060006115bc61158f565b905060008151116115dc5760405180602001604052806000815250611607565b806115e68461193f565b6040516020016115f79291906124bb565b6040516020818303038152906040525b915050919050565b60007f01ffc9a7000000000000000000000000000000000000000000000000000000007bffffffffffffffffffffffffffffffffffffffffffffffffffffffff1916827bffffffffffffffffffffffffffffffffffffffffffffffffffffffff1916149050919050565b60006002600083815260200190815260200160002060009054906101000a900473ffffffffffffffffffffffffffffffffffffffff169050919050565b80806116ef5750600073ffffffffffffffffffffffffffffffffffffffff168273ffffffffffffffffffffffffffffffffffffffff1614155b156118235760006116ff84610cd4565b9050600073ffffffffffffffffffffffffffffffffffffffff168373ffffffffffffffffffffffffffffffffffffffff161415801561176a57508273ffffffffffffffffffffffffffffffffffffffff168173ffffffffffffffffffffffffffffffffffffffff1614155b801561177d575061177b8184610ad8565b155b156117bf57826040517fa9fbf51f0000000000000000000000000000000000000000000000000000000081526004016117b69190611e46565b60405180910390fd5b811561182157838573ffffffffffffffffffffffffffffffffffffffff168273ffffffffffffffffffffffffffffffffffffffff167f8c5be1e5ebec7d5bd14f71427d1e84f3dd0314c0f7b2291e5b200ac8c7c3b92560405160405180910390a45b505b836004600085815260200190815260200160002060006101000a81548173ffffffffffffffffffffffffffffffffffffffff021916908373ffffffffffffffffffffffffffffffffffffffff16021790555050505050565b611886838383611a0d565b61193a57600073ffffffffffffffffffffffffffffffffffffffff168373ffffffffffffffffffffffffffffffffffffffff16036118fb57806040517f7e2732890000000000000000000000000000000000000000000000000000000081526004016118f2919061205a565b60405180910390fd5b81816040517f177e802f000000000000000000000000000000000000000000000000000000008152600401611931929190612840565b60405180910390fd5b505050565b60606000600161194e84611ace565b01905060008167ffffffffffffffff81111561196d5761196c611ed7565b5b6040519080825280601f01601f19166020018201604052801561199f5781602001600182028036833780820191505090505b509050600082602083010190505b600115611a02578080600190039150507f3031323334353637383961626364656600000000000000000000000000000000600a86061a8153600a85816119f6576119f5612869565b5b049450600085036119ad575b819350505050919050565b60008073ffffffffffffffffffffffffffffffffffffffff168373ffffffffffffffffffffffffffffffffffffffff1614158015611ac557508273ffffffffffffffffffffffffffffffffffffffff168473ffffffffffffffffffffffffffffffffffffffff161480611a865750611a858484610ad8565b5b80611ac457508273ffffffffffffffffffffffffffffffffffffffff16611aac83610d5c565b73ffffffffffffffffffffffffffffffffffffffff16145b5b90509392505050565b600080600090507a184f03e93ff9f4daa797ed6e38ed64bf6a1f0100000000000000008310611b2c577a184f03e93ff9f4daa797ed6e38ed64bf6a1f0100000000000000008381611b2257611b21612869565b5b0492506040810190505b6d04ee2d6d415b85acef81000000008310611b69576d04ee2d6d415b85acef81000000008381611b5f57611b5e612869565b5b0492506020810190505b662386f26fc100008310611b9857662386f26fc100008381611b8e57611b8d612869565b5b0492506010810190505b6305f5e1008310611bc1576305f5e1008381611bb757611bb6612869565b5b0492506008810190505b6127108310611be6576127108381611bdc57611bdb612869565b5b0492506004810190505b60648310611c095760648381611bff57611bfe612869565b5b0492506002810190505b600a8310611c18576001810190505b80915050919050565b6000604051905090565b600080fd5b600080fd5b60007fffffffff0000000000000000000000000000000000000000000000000000000082169050919050565b611c6a81611c35565b8114611c7557600080fd5b50565b600081359050611c8781611c61565b92915050565b600060208284031215611ca357611ca2611c2b565b5b6000611cb184828501611c78565b91505092915050565b60008115159050919050565b611ccf81611cba565b82525050565b6000602082019050611cea6000830184611cc6565b92915050565b600081519050919050565b600082825260208201905092915050565b60005b83811015611d2a578082015181840152602081019050611d0f565b60008484015250505050565b6000601f19601f8301169050919050565b6000611d5282611cf0565b611d5c8185611cfb565b9350611d6c818560208601611d0c565b611d7581611d36565b840191505092915050565b60006020820190508181036000830152611d9a8184611d47565b905092915050565b6000819050919050565b611db581611da2565b8114611dc057600080fd5b50565b600081359050611dd281611dac565b92915050565b600060208284031215611dee57611ded611c2b565b5b6000611dfc84828501611dc3565b91505092915050565b600073ffffffffffffffffffffffffffffffffffffffff82169050919050565b6000611e3082611e05565b9050919050565b611e4081611e25565b82525050565b6000602082019050611e5b6000830184611e37565b92915050565b611e6a81611e25565b8114611e7557600080fd5b50565b600081359050611e8781611e61565b92915050565b60008060408385031215611ea457611ea3611c2b565b5b6000611eb285828601611e78565b9250506020611ec385828601611dc3565b9150509250929050565b600080fd5b600080fd5b7f4e487b7100000000000000000000000000000000000000000000000000000000600052604160045260246000fd5b611f0f82611d36565b810181811067ffffffffffffffff82111715611f2e57611f2d611ed7565b5b80604052505050565b6000611f41611c21565b9050611f4d8282611f06565b919050565b600067ffffffffffffffff821115611f6d57611f6c611ed7565b5b611f7682611d36565b9050602081019050919050565b82818337600083830152505050565b6000611fa5611fa084611f52565b611f37565b905082815260208101848484011115611fc157611fc0611ed2565b5b611fcc848285611f83565b509392505050565b600082601f830112611fe957611fe8611ecd565b5b8135611ff9848260208601611f92565b91505092915050565b60006020828403121561201857612017611c2b565b5b600082013567ffffffffffffffff81111561203657612035611c30565b5b61204284828501611fd4565b91505092915050565b61205481611da2565b82525050565b600060208201905061206f600083018461204b565b92915050565b60008060006060848603121561208e5761208d611c2b565b5b600061209c86828701611e78565b93505060206120ad86828701611e78565b92505060406120be86828701611dc3565b9150509250925092565b6120d181611cba565b81146120dc57600080fd5b50565b6000813590506120ee816120c8565b92915050565b6000806040838503121561210b5761210a611c2b565b5b600061211985828601611dc3565b925050602061212a858286016120df565b9150509250929050565b60006020828403121561214a57612149611c2b565b5b600061215884828501611e78565b91505092915050565b6000806040838503121561217857612177611c2b565b5b600061218685828601611e78565b9250506020612197858286016120df565b9150509250929050565b600067ffffffffffffffff8211156121bc576121bb611ed7565b5b6121c582611d36565b9050602081019050919050565b60006121e56121e0846121a1565b611f37565b90508281526020810184848401111561220157612200611ed2565b5b61220c848285611f83565b509392505050565b600082601f83011261222957612228611ecd565b5b81356122398482602086016121d2565b91505092915050565b6000806000806080858703121561225c5761225b611c2b565b5b600061226a87828801611e78565b945050602061227b87828801611e78565b935050604061228c87828801611dc3565b925050606085013567ffffffffffffffff8111156122ad576122ac611c30565b5b6122b987828801612214565b91505092959194509250565b600080604083850312156122dc576122db611c2b565b5b60006122ea85828601611e78565b92505060206122fb85828601611e78565b9150509250929050565b7f4e487b7100000000000000000000000000000000000000000000000000000000600052602260045260246000fd5b6000600282049050600182168061234c57607f821691505b60208210810361235f5761235e612305565b5b50919050565b7f4e487b7100000000000000000000000000000000000000000000000000000000600052601160045260246000fd5b600061239f82611da2565b91507fffffffffffffffffffffffffffffffffffffffffffffffffffffffffffffffff82036123d1576123d0612365565b5b600182019050919050565b60006060820190506123f16000830186611e37565b6123fe602083018561204b565b61240b6040830184611e37565b949350505050565b7f4f6e6c79206f776e65722063616e20746f67676c6520636f6e73656e74000000600082015250565b6000612449601d83611cfb565b915061245482612413565b602082019050919050565b600060208201905081810360008301526124788161243c565b9050919050565b600081905092915050565b600061249582611cf0565b61249f818561247f565b93506124af818560208601611d0c565b80840191505092915050565b60006124c7828561248a565b91506124d3828461248a565b91508190509392505050565b60008190508160005260206000209050919050565b60006020601f8301049050919050565b600082821b905092915050565b6000600883026125417fffffffffffffffffffffffffffffffffffffffffffffffffffffffffffffffff82612504565b61254b8683612504565b95508019841693508086168417925050509392505050565b6000819050919050565b600061258861258361257e84611da2565b612563565b611da2565b9050919050565b6000819050919050565b6125a28361256d565b6125b66125ae8261258f565b848454612511565b825550505050565b600090565b6125cb6125be565b6125d6818484612599565b505050565b5b818110156125fa576125ef6000826125c3565b6001810190506125dc565b5050565b601f82111561263f57612610816124df565b612619846124f4565b81016020851015612628578190505b61263c612634856124f4565b8301826125db565b50505b505050565b600082821c905092915050565b600061266260001984600802612644565b1980831691505092915050565b600061267b8383612651565b9150826002028217905092915050565b61269482611cf0565b67ffffffffffffffff8111156126ad576126ac611ed7565b5b6126b78254612334565b6126c28282856125fe565b600060209050601f8311600181146126f557600084156126e3578287015190505b6126ed858261266f565b865550612755565b601f198416612703866124df565b60005b8281101561272b57848901518255600182019150602085019450602081019050612706565b868310156127485784890151612744601f891682612651565b8355505b6001600288020188555050505b505050505050565b600081519050919050565b600082825260208201905092915050565b60006127848261275d565b61278e8185612768565b935061279e818560208601611d0c565b6127a781611d36565b840191505092915050565b60006080820190506127c76000830187611e37565b6127d46020830186611e37565b6127e1604083018561204b565b81810360608301526127f38184612779565b905095945050505050565b60008151905061280d81611c61565b92915050565b60006020828403121561282957612828611c2b565b5b6000612837848285016127fe565b91505092915050565b60006040820190506128556000830185611e37565b612862602083018461204b565b9392505050565b7f4e487b7100000000000000000000000000000000000000000000000000000000600052601260045260246000fdfea2646970667358221220289970e560b7da085d2908b302e083a69e0e62bfec4fbeca7ccfbc58234a43ab64736f6c63430008140033",
  "linkReferences": {},
  "deployedLinkReferences": {}
}